:020000022000DC
:106000000000012079630200616302006363020003
:10601000656302006763020069630200000000001C
:106020000000000000000000000000006B630200A0
:106030006D630200000000006F63020071630200E4
:1060400025900200736302006994020073630200EA
:106050007363020073630200ED9202007363020037
:10606000499B02005D9B0200719B0200736302006A
:10607000736302006D950200736302007363020094
:1060800073630200A96D0200736302007363020070
:10609000456E020073630200211003007363020067
:1060A0007363020073630200859B0200999B0200E8
:1060B0007363020073630200000000000000000030
:1060C0007363020073630200736302007363020070
:1060D0007363020073630200736302000000000038
:1060E00000000000000000000000000000000000B0
:1060F00000000000000000000000000000000000A0
:10610000000000000000000000000000000000008F
:10611000000000000000000000000000000000007F
:10612000000000000000000000000000000000006F
:10613000000000000000000000000000000000005F
:10614000000000000000000000000000000000004F
:10615000000000000000000000000000000000003F
:10616000000000000000000000000000000000002F
:10617000000000000000000000000000000000001F
:10618000000000000000000000000000000000000F
:1061900000000000000000000000000000000000FF
:1061A00000000000000000000000000000000000EF
:1061B00000000000000000000000000000000000DF
:1061C00000000000000000000000000000000000CF
:1061D00000000000000000000000000000000000BF
:1061E00000000000000000000000000000000000AF
:1061F000000000000000000000000000000000009F
:10620000364937480A1A02D0072291438D4635494C
:1062100035480A1A06D00722914381F309880222E1
:1062200082F3148831483249324A00F045F8324846
:106230003249334A00F040F832483349334A00F0DB
:106240003BF833483349344A00F036F83348344990
:10625000344A00F031F834483449354A00F02CF81B
:1062600034483549354A00F027F835483549002289
:1062700000F02DF834483549002200F028F8344861
:106280003449091A082903DB002202600430016046
:10629000314A90471F482049884205D0026804309F
:1062A00003B4904703BCF7E700208646EC46002085
:1062B00000212A4A9047FEE7884207D0521A05D0AB
:1062C000037801300B700131013AF9D170478842EF
:1062D00002D002700130FAE7704700000000012090
:1062E00000E000200000012000000120C899030008
:1062F000A42B0020282C0020D8630200D8630200C1
:10630000FC470300C8990300A42B0020A42B002005
:10631000C0490300C0490300C0490300C04903004D
:10632000C0490300C0490300C0490300C04903003D
:10633000C89903004C9A0300282C0020282C002028
:10634000282C0020CA410020CC410020CC41002054
:10635000CC410020CC610020A1630200E1B1020029
:10636000FEE7FEE7FEE7FEE7FEE7FEE7FEE7FEE705
:10637000FEE7FEE7704700BF1048804710484FF027
:106380000701884385460F4880470F48016841F45C
:1063900070010160BFF34F8FBFF36F8FFFF730BF06
:1063A0000A480B490B4A884207D0521A05D0037895
:1063B00001300B700131013AF9D170477563020069
:1063C00000000120B1BB020088ED00E0AC490300F1
:0863D000902B0020A42B0020FB
:1063D800022003F02BBC00002DE9F04781460D4652
:1063E80003F044FC0328044604D8012D04D024D328
:1063F800022D2FD0BDE8F087194D47003A18A9188B
:10640800AE5C4A7852B1DFF86880164842464FF4CD
:10641800004100F0ABFE08B988F800903B192B4406
:106428009A78114B1A55002EE4D0104B1B68002B9C
:10643800E0D03046BDE8F04718470A4800F0DAFED9
:10644800074B04EB440213449E78074B1B5DB34291
:10645800D0D1E8E7024B00EB40041C446678E2E741
:106468008C2C00204C2C0020A52C0020A02C0020D7
:10647800282C002002210078FFF7AEBF08B5094B91
:106488001B7853B1002003F0A7FB012003F0A4FB05
:106498000320BDE8084003F09FBBBDE8084003F0B7
:1064A800A7BB00BF292C0020F8B57B4C23780546F4
:1064B8001BB100232370FFF7E1FF172D00F288803E
:1064C800DFE805F00C17174354657680888D888DB2
:1064D800959A9A9A9A9AC4C9D1D9E4E4FFF7CEFF5B
:1064E8006E4800F087FE6E4B002204461A70204664
:1064F800F8BD002003F056FBF8B1002003F06CFB58
:10650800022D0CBF4FF4E1614FF47A61644B1D70AA
:106518004FF400404FF4FA740025E0FB01454FF4B6
:106528007A720023204629460AF065FF00220146B8
:106538005A48BDE8F84000F019BE03F041FB022DAF
:106548000CBFC8214FF4C871E0E7002003F02AFB14
:1065580040B1002003F040FB4FF44871504B032238
:106568001A70D5E703F02CFBC821F7E7002003F0E9
:1065780019FB38B1002003F02FFB4FF47A61484B28
:106588000422EDE703F01CFB4FF4C871F7E7002085
:1065980003F008FB48B1002003F01EFB404B052226
:1065A8001A7041F69A110022C2E703F009FBF5E7D9
:1065B800002003F03BFB3A4B06221A70002240F6FB
:1065C800CD41B5E7002003F0FBFA354B07221A70DE
:1065D80000248CE70120207003F028FBEEE701205F
:1065E800207003F023FB00224FF48041A0E703F062
:1065F8000EFB2B4B0C22EAE72A482B4E00F0FAFD43
:10660800D5F1110504461CD0D8B9012D13D0C823E3
:106618005D434FF400474FF4FA7000214FF47A724B
:106628000023C7FB05010AF0E6FE224601461D4885
:1066380000F09CFD0446022003F0C2FA01233370E7
:1066480055E7022003F0C8FA0023F8E7FFF716FF22
:10665800134B1222BBE7FFF711FF002003F0B0FA3B
:106668000F4B1322B3E7FFF709FF012003F0A8FA45
:106678000B4B1422ABE7FFF701FF002003F0A0FA51
:10668800012003F09DFA064B1522A0E703F0BFFA9C
:10669800034B1D709CE700BF9C2C00206C2C002035
:1066A800A42C00202C2C0020292C0020044B1B6833
:1066B800DB0703D5034B1878FFF7F6BE704700BF1A
:1066C800982C0020A42C0020032801D803F0C0BA7D
:1066D80000207047044B1B6813F0010301D0FFF73B
:1066E800E3BE1846704700BF982C002038B51C4BF5
:1066F80018601C4B10F00204054619601AD01A4B9A
:106708001A480E221A700F22DA7010229A7111227A
:106718005A72042140F2666200F02AFA044648B927
:1067280000F07AFA044628B90146114A114800F0E7
:106738000BFD0446EB0711D5012003F0AFFA6CB945
:1067480021460D4A0D4800F0FFFC044630B90C4ABA
:106758000C480121BDE8384000F0F6BC204638BDA1
:10676800982C0020A02C00208C2C0020C04903006D
:106778007D640200E4490300B5660200E8490300AD
:10678800D9630200E0490300032812D8012A0BD17B
:10679800012908D100F10E02D2B200EB40000C4BE7
:1067A8001A540020704700220129F6D009D3022983
:1067B80001D007207047064B00EB40001844427098
:1067C800EFE7034B00EB400018448270E9E700BF95
:1067D8008C2C0020032808B512D803F059FA800041
:1067E80000F1A040D0F8003723F44033C0F8003758
:1067F800D0F8003743F44033C0F80037002008BD14
:106808000620FCE708B5012202210020FFF7BCFFA3
:1068180008B1072810D1072202210120FFF7B4FF91
:1068280008B1072808D100210A220846FFF7ACFF63
:1068380010B1072808BF002008BD00000388102BEE
:1068480010B502D0112B1ED010BD1A4C2168B1B959
:1068580001220846FFF798FF08B1072824D107222C
:1068680002210120FFF790FF08B107281CD104225C
:1068780002210020FFF788FF08B1072814D12368F8
:1068880001332360E0E70B4A1368013B1360002BD8
:10689800DAD1FFF7B7FF0028D6D0074B1B68002BCB
:1068A800D2D0BDE810401847034B1B68002BE6D038
:1068B8009847E4E7B02C0020AC2C002008B5002055
:1068C800FFF788FF08B1062806D10120FFF782FFED
:1068D80010B1062808BF002008BD00000D4B10B5F8
:1068E80018600C4629B10120FFF7EEFE40B10223E3
:1068F8002370094B1B6853B9BDE81040FFF782BFEE
:10690800FFF7E2FE08B10B23F2E72070F1E7002061
:1069180010BD00BFAC2C0020B02C002004F0CABB76
:106928000021084604F07ABB10F1360F0AD058B19E
:1069380048F2115248F2165310F1380F0CBF1046A6
:106948001846704748F21450704708B50846114673
:1069580002F024FB002008BD37B50446002002F0F1
:106968009FFA054678B90434204604F0B0F800953B
:106978002B462A460549204604F023F903B0BDE812
:106988003040FFF7D1BF03B030BD00BF53690200EC
:1069980008B5043004F0A0F802F0AEFA002008BDF3
:1069A80008B5043004F072F9BDE80840FFF7BCBF31
:1069B80008B5114604301A4604F09DF8BDE80840B1
:1069C800FFF7B2BF2DE9F04F3B4F89B000263B4B94
:1069D8001B78F5B2AB4202D809B0BDE8F08F384B4E
:1069E800196811F835000124A0F12002C0F1200334
:1069F80004FA02F924FA03F349EA0309D7E9002360
:106A080004FA00F8CDE9042302EA080203EA0903BC
:106A1800134301EBC50B4CD0DDE9042322EA08023D
:106A280023EA0903C7E90023079102F051FC0799FB
:106A3800844611F83500A0F12002C0F1200324FAA1
:106A480003F304FA02F21A4304FA00F300931D4B0D
:106A58000192DDE90045D3E9002314401D40224698
:106A68002B465FFA8CF40025CDE90445049CA0F17F
:106A78002005AC400394049CC0F1200124FA01F1E4
:106A8800039C0C430499039481400291DDE902457B
:106A9800AB4208BFA2420CD19BF801104B1E5942D1
:106AA8005941A1EB0C02DBF804305142514103B1CA
:106AB800984701368BE700BFE82C0020B42C002053
:106AC800F02C0020E02C00202DE9F84F0646244841
:106AD80000F090FB002841D10123A6F12001C6F166
:106AE800200203FA01FB23FA02F203FA06FA1D4B0D
:106AF800D3E900014BEA020B00EA0A0801EA0B0994
:106B080058EA09021F4623D1304602F0E1FB164B32
:106B1800B8B1D3E9000140EA0A0441EA0B05C3E928
:106B28000045D7E900234BEA0305104B0C481968C8
:106B38004AEA0204C7E900450022BDE8F84F00F020
:106B480015BBD3E9000120EA0A0421EA0B05E6E7B0
:106B580020EA0A0421EA0B05C3E90045BDE8F88FDD
:106B6800BC2C0020E82C0020E02C0020B82C0020B1
:106B7800042A2DE9F34105460C4616463AD902F097
:106B8800DFFAD8B11C4B1D491D601D4BDFF884800E
:106B98001C701C4B00221E600023C1E900231A4907
:106BA800C1E90023013CE4B200260327FF2C0CD1E5
:106BB800164A1748002100F0C7FA03E002F08AFAE3
:106BC8000028DFD002B0BDE8F08123B205EBC30294
:106BD80001A992788DF8052015F833008DF8066024
:106BE80042468DF8047002F0B5FA013CE4B2002880
:106BF800DCD0E7E70720E5E7F02C0020E02C0020B8
:106C0800B42C0020B82C0020E82C0020CD6902000C
:106C1800EC490300D16A020070B5084D084E002403
:106C28002B789C4201D3002070BD3368012113F8F2
:106C3800340002F007FB0134F2E700BFB42C002057
:106C4800F02C00201FB50021039001AA44F2010096
:106C5800CDE9011100F004F805B05DF804FB00006F
:106C680010B572B603F098FA03F0F8F80028FBD1D3
:106C7800104B114C1149E41AE408240444F00100B3
:106C880003F058FA0E4B1B68DB0700D500BE0D4910
:106C980044F0020003F04EFABFF34F8F0A490B4B42
:106CA800CA6802F4E0621343CB60BFF34F8F00BFA2
:106CB800FDE700BFC4480300FC480300F049030097
:106CC800F0ED00E0FC49030000ED00E00400FA05E7
:106CD800094A537891780133DBB2994208BF0023FF
:106CE800117899421FBF03705078182303FB0020C6
:106CF80014BF043000207047F42C002073B50546FB
:106D080002A8002400F8014D0E4600F08DFA0DF19E
:106D18000600FFF7DDFF90B106700A4B9DF80620CC
:106D280045605A709DF8070000F0A2FA24B9064B96
:106D38004FF48012C3F80021204602B070BD04242D
:106D4800F0E700BFF42C002000E100E0024B4FF414
:106D58003C6043F001031847104A030038B50C4B58
:106D68000C4C4FF40032C3F8802001254FF48033D7
:106D7800C4F84833C4F808336560FFF7E7FF064BEB
:106D8800A56000241C60FFF7E1FF044B1C7038BDB0
:106D980000E100E000100140102E0020012E00202C
:106DA800F8B51F4B1F491B680025C1F84051C1F8B1
:106DB8004451C1F84851C1F84C51C1F80051C1F8CB
:106DC80004514BB3D1F8044517490968641A24F0F3
:106DD8007F442F461A68A24209D8A41A15441A7C7F
:106DE800DE691AB11F74D3E905209047AEB90F4B7D
:106DF8000F4A197813788B4205D10133DBB2022B85
:106E080008BF0023137012780A4B43F822500A4B2C
:106E18004FF48012C3F80021F8BD3346DAE700BF0B
:106E2800142E002000100140102E00200C2E0020EF
:106E38000D2E0020042E002000E100E02DE9F74F80
:106E48009E4A9F49137809789E4D99423CD0013358
:106E5800DBB2022B08BF002313709B4912789B4BAF
:106E68000F6853F822003B1823F07F4300220B6081
:106E78002B6816461446944613B942B12B6006E0B7
:106E8800196881420ED902B12B60091A19604FF0B6
:106E980001082B68DFF83CA200930027BEB9DFF891
:106EA8003CB260E0401A0C44D968C3F800C0D3F87B
:106EB8001CE031B13A1922F07F42C3E90121DE61B9
:106EC8001E4601227346D7E70026B046E1E734465E
:106ED800F6697D4A63681268DFF804C2A068991AE7
:106EE80021F07F41614500F2A58001442160012223
:106EF80022742A680023C4E90133E361002A40F0C0
:106F0800A2802C60CAE75A1C9BF80210D2B29142A8
:106F18008BF8002004BF00228BF80020182202FB07
:106F280003B32A6819799C68022974D003297ED092
:106F3800012918D1217CB1B9DA6862601A69A260A6
:106F48005A699B69A361624BE2601B78002BC0D031
:106F58006160BEE79C4200F093809946DB69002B94
:106F6800F8D1002323749BF800309BF801209A4243
:106F7800C9D12B682FB9009A934202D1B8F1000FFA
:106F880043D0002B79D0D3F800A0524D4E4BD5F802
:106F980004751C68DFF84C813E1B98F8003026F019
:106FA8007F4603369BB94FF48033C5F84433C5F8A0
:106FB8000433494B4FF400324FF00109C3F88021E4
:106FC8001A60C5F80090FFF7C1FE88F80090B24536
:106FD8002CBF5444A41924F07F44C5F84045D5F883
:106FE8000435DB1B23F07F43E41B033324F07F4489
:106FF800A3420AD9D5F80435C5F84035FFF7A6FEEF
:10700800354B4FF40032C3F80021314B00221A707F
:1070180003B0BDE8F08F13469146A0E71174D2691A
:107028000123002AFAD1002B9DD02A609BE7002378
:107038001946F6E7D31A23F07F43834234BFC31AB5
:107048000023236053E721681368994213D8591A1B
:107058001160E26155E7091AD8691A4638B1034642
:1070680018688842F7D3401A1860184613462160FA
:10707800E061DC6112E71346F2E7FFF76FFEC4E751
:107088004C450DD1D3692B6053B90F4801920121AA
:10709800CAF8081003600E4B1970FFF757FE019AE3
:1070A800E1692368C9F81C1011B1086803440B6032
:1070B8002B689A4218BF012753E700BF0C2E002007
:1070C8000D2E0020142E0020102E0020042E00204B
:1070D800002E00200010014000E100E0F42C002008
:1070E800FEFF7F00012E002008B5FFF737FE104B8A
:1070F80000200B2218809A700E4B18600E4B1870E7
:107108000E4B18700E4B4FF48012C021C3F880212B
:1071180083F814131A6002F18042A2F56F22C2F8B4
:10712800080583F81113074BD2F804251A6008BD27
:10713800F42C0020142E00200C2E00200D2E0020F0
:1071480000E100E0102E0020074B9B784BB132B1D4
:1071580028B10368187C20B959745A617047072010
:1071680070470820704700BFF42C00202DE9F74332
:107178001D4FBB7805460E4690469BB390B3042935
:107188002ED9436973B3437C02A80024012B00F86D
:10719800014D0CBF8946A14600F046F80DF10600E6
:1071A800FFF796FDD0B101230370104B4560D3F86B
:1071B8000435C0E90498C0E902369DF806307B70B2
:1071C8009DF8070000F054F824B9094B4FF48012D9
:1071D800C3F80021204603B0BDE8F0830424EFE79C
:1071E8000724F7E70824F5E7F42C002000100140F5
:1071F80000E100E0064A92783AB130B1426922B122
:10720800002202740221FFF779BD0820704700BFF1
:10721800F42C0020014BD3F80405704700100140FE
:10722800401A20F07F40704770B5EFF3108672B6B1
:107238000C4A946801239CB993600B4B0B4DD3F80F
:10724800801029401160C3F88050D3F88410516031
:107258004FF0FF32C3F88420047006B962B670BDDF
:107268000370FAE7182E002000E100E0FC06FFBDDD
:10727800084B9A6810B55AB150B9EFF3108172B63D
:10728800054A1C6814605C685460986001B962B66D
:1072980010BD00BF182E002000E100E070B5064EBA
:1072A8000546002456F824300BB128469847013487
:1072B800042CF7D170BD00BF302E0020033080B2FF
:1072C80040F2FD33984230B51FD8124B1A783AB9BC
:1072D8001C895D892C440444A4B2B4F5806F0AD398
:1072E8001A7DA2B99A8BDC8B2244024492B2B2F581
:1072F800806F0CD201220A801446142202FB043348
:107308005A8910445881002030BD0920FCE7072025
:10731800FAE700BF642E00200B4A0C4B518814205A
:1073280000FB0131CB6833B9042049681070012291
:10733800074801F0EDB805230649137002238B8036
:10734800012200230968F3E7482E0020642E00205C
:10735800902B00202C2F002007B50023054900930F
:10736800054A09680548082301F03CF803B05DF8B0
:1073780004FB00BF2C2F0020244A0300902B002080
:1073880007B50023009301460823034A034801F088
:1073980029F803B05DF804FB1C4A0300902B002079
:1073A80013B500230C46009301460423074A0848F6
:1073B80001F018F838B9074B142202FB04340123F2
:1073C800237402B010BD0E20FBE700BF184A03006B
:1073D800902B0020642E002037B50A480A4B4268DB
:1073E8009C88196853880325033305709BB20020D5
:1073F80000909B0001EB8401044800F0F3FF03B008
:1074080030BD00BF482E00202C2F0020902B0020DC
:1074180010B50146044800F048FE1C22044600212D
:107428000AF0CCF8204610BD182F002043880333FB
:1074380000EB8303994209D382884FF6FF739A427F
:1074480006D00088B0FA80F04009704702207047E3
:10745800012070472DE9F8430223DFF860800B8094
:107468000D46174600F5805600F108044FF0010953
:10747800B4420FD2236801330CD031462046FFF7BF
:10748800D5FF48B10FB187F8009002280BD14FF40F
:1074980080632B80BDE8F883A368D8F80020934266
:1074A80001D9C8F800302B886288033313442B8035
:1074B8006388033304EB8304DAE700BF5C2E002003
:1074C800144A142303FB002070B50B6844680D466A
:1074D80004F580569BB15C88033403EB8404B44202
:1074E8000BD22368013308D031462046FFF79EFFB0
:1074F800012809D005D30228F1D1002003E008347F
:10750800EDE72C60012070BD6388033304EB83042E
:10751800E5E700BF642E0020436873B505460C46B6
:107528006BB3254AD1688B4229D31269934226D876
:1075380013F0030223D121490089098988421ED109
:107548002868996888421AD11D494868834203D936
:1075580000F5805083420ED38A6993420DD902F513
:107568008052934209D2012323800020B0FA80F090
:10757800400902B070BD1346F6E70A20F6E700237B
:1075880023801E462388012B01D90020F1E70196AC
:1075980001A92088FFF794FF18B9238801332380B5
:1075A800F0E7019B2A6899689142F1D16B60034B1F
:1075B8001B892B81DDE700BF902B0020482E00207F
:1075C800642E00202DE9F8431C461E4B1B78064606
:1075D8000F461546002B30D0002A30D07CB3DFF898
:1075E8006C804FF01409A388012B01D90A201AE0F6
:1075F80009FB03F318F80330BBB1A3880133A38058
:10760800F1E723681EB19988328891420DD11FB1E4
:1076180019883A88914208D19A68C5E900230A4B2B
:107628001B892B810020BDE8F8832146A088FFF73D
:1076380047FF0028E5D12060DFE70220F3E70520B7
:10764800F1E700BF402E0020482E0020642E0020C5
:1076580008B5074B191D5888FFF732FF18B1BDE868
:107668000840FFF7B9BEBDE80840FFF755BE00BFA8
:10767800482E00202DE9F04FA04FDFF8A49289B0E2
:107688000646B8463B6823B949469D4800F047FD81
:107698003860D8F8005029784B1E052B00F212816B
:1076A800DFE813F0060076007600060106015D01AA
:1076B80026B1944B00225A60012424E02B79032B35
:1076C8001DD8DFE803F01502424D8F490B78022BD5
:1076D800084631D00B7D022B4FF001032ED1142226
:1076E8005343C2180020C8545068FFF749FE03E00E
:1076F80001232B71FFF730FE002800F0D380814B67
:1077080000225A600E241422002103A809F056FF13
:1077180041F61D539C4208BF0024D8F80030049459
:107728001A78023A042A00F2D381DFE812F0B40191
:10773800C001E301EB01F2010023D0E7714A1370A5
:107748000023536041F61D54DDE77049704800235B
:1077580002222B718A800122096800F0D9FECBE74A
:107768006A4C00262E712068674DFFF709FE694BA9
:10777800D4F800C05A8814235343EA18EE545168C9
:107788002160A188C2F804C011810222A280B3E757
:10779800B5F814A0AA7DDFF870B1AEB1022AEB8863
:1077A80006D9142101FB0AB1DA1C088902440A81AE
:1077B800142202FB0ABAC3F57F43BAF80A20FD3344
:1077C8001344AAF80A3077E7142303FB0AB318898D
:1077D8005C6804EB8004062A05D8DFE802F0264C32
:1077E80034421C5866000F24AA7DEB88022A06D969
:1077F800142101FB0AB1DA1C088902440A81142207
:1078080002FB0ABAC3F57F43BAF80A20FD331344D2
:10781800AAF80A3077E74048404900234360AB693B
:107828000360FFF779FE00285AD00223AB750023C6
:1078380000930423EA182146354800F0D3FD0028B8
:1078480030D00E24D0E72B69002B0CBF0123032373
:10785800AB750023009305F10C02042304F1080121
:10786800EAE70123AB750022EB8800929B002A69A6
:1078780004F10C01E0E7032914BF06230523AB75C7
:1078880000230093042305F10802E118D4E7062336
:10789800AB75224B1988204B5868FFF781FD0446C9
:1078A8000028A1D109B0BDE8F08F41F61D549BE72F
:1078B800002E7FF401AF2B79012B33D004D3022B98
:1078C8003FF440AF0F241EE702232B710DF10A018C
:1078D800EB68039303A8CDE90466FFF71DFE08B91A
:1078E8000A2410E70498BDF80A108388EB800388FF
:1078F8002B81FFF755FD044627E000BF602E0020CE
:10790800182F0020402E0020642E00202C2F00204D
:10791800902B0020482E0020242E0020382F0020F5
:10792800582E0020DFF808A203AA53463146A81DA6
:10793800FFF748FE044660B9BAF804100498FFF748
:107948002FFD04460A2C3FF4FDAE002C7FF4DBAE7D
:10795800A8E708223146504609F030FEF2E7002E2B
:107968007FF4AAAE6D4B1A7BB2B11E731A78013A36
:10797800062AA7D801A151F822F000BF2B7A0200ED
:10798800517A02006F7A0200757A0200CD780200FF
:107998007B7A0200917A02001A78072AE6D801A1B8
:1079A80051F822F0CD79020075790200757902004C
:1079B800F3790200077A0200277A0200277A020088
:1079C800EF7902001A89564901321A8100225A8039
:1079D8001A730A78B2FA82F252099A720A7DB2FAD6
:1079E80082F25209DA72012207E04E4958688A8801
:1079F8004088033202448A8002221A70B6E7484C53
:107A08005A884849142505FB0242086854685060A2
:107A18008888108102228A800C600622EDE70722FE
:107A2800EBE79A7A32B9DA7A8AB900221A705A8060
:107A38005A6087E63A4900229A72CA68002AF2D147
:107A4800097C0029EFD05A80FFF702FE53E7002295
:107A5800DA72334A116A0029E7D192F82420002A01
:107A6800E3D00122EFE7FFF7B7FC44E7FFF754FC48
:107A780041E706221A702A4A5B88142101FB032376
:107A88005868FFF77DFC36E707221A7000225A6013
:107A9800FFF762FC2FE701228DF80C201A89ADF858
:107AA80018209A88DB68ADF81A20059310E00222A6
:107AB8008DF80C201A89ADF818209A88ADF81A208C
:107AC800DA689B7D05929A1F534253418DF81C300A
:107AD80003A8FFF7E3FB002649461348C8F80060EF
:107AE80000F048FB0121114800F0F7FB00287FF463
:107AF800C9ADD7E603228DF80C20DA88ADF8182036
:107B08001A89CFE70422DB888DF80C20ADF81830ED
:107B1800DEE705238DF80C30DAE700BF482E002099
:107B2800642E00202C2F0020182F0020282F002042
:107B38003C2F00204068FFF79DBD000008B50121DB
:107B4800044800F0B4FB18B9BDE80840FFF792BD3F
:107B580008BD00BF282F00202DE9F3419846354B7A
:107B68001B7806460D46002B5BD000295BD00988A0
:107B78004FF6FF73994258D06B88002B55D06B682D
:107B88009B0754D14AB92F890DF102013846FFF7F6
:107B980095FB30B102B0BDE8F08113885788ADF885
:107BA800023001A8FFF734FC044658B9BDF802308A
:107BB800214A142101FB032358890338C01B58812B
:107BC8000820E7E700238375BDF8023083826B68DD
:107BD800036180F800800121184800F073FB2B88AE
:107BE8002381B8F1030F6B88A38004BF0423A37516
:107BF8004FF0000508BF3368E06008BFA361E78065
:107C0800658101A90E4800F07AFA36B1E36833605D
:107C18000C4B75601B89B5723381FFF78FFF00200D
:107C2800B8E70220B6E70520B4E70420B2E703204E
:107C3800B0E700BF402E0020642E00205C2E0020FC
:107C4800182F0020482E002008B5084B1A68042A6F
:107C580009D01968064A42F821000121184600F0A7
:107C680031FB002008BD0C20FCE700BF342F0020AA
:107C7800302E00202DE9F04F89B01422002103A8EE
:107C880009F09CFC7D4A137803F0FF0100919046AF
:107C98003BB103A8FFF702FB0026304609B0BDE858
:107CA800F08F101D00F024FB05460028F4D140F6A3
:107CB800F8734FF080521B68DFF8ECA15C1C04BF1E
:107CC8006F4B1B6811695269581C08BF02FB01F30E
:107CD800CAF810300022A3F540536A49CAF80C309C
:107CE800504600F04BFB06460028D6D11C238C22B8
:107CF8006549664800F0A4F93746B3464FF00309D2
:107D08003446CDF804A0019BD9680BEB010002466C
:107D18005BF80110002835D05D4B994232D141689B
:107D28005C4B994215D0013399422BD1009BDFF867
:107D380070A1002B59D100225749CAF80000FFF75B
:107D480089FBBAF80420022A14BF08220422174328
:107D58003AE052494FF0140C0CFB04FC01EB0C0206
:107D68004FF0000E01F80CE050600CF110020CF11D
:107D7800080C0A446144FFF76DFB47F00207013421
:107D8800A4B221E000F5805C1168013167D10432AA
:107D98009445F9D1424A116829B90221012310609A
:107DA800918000930EE0142262433C4B4FF0020E88
:107DB800991803F802E03B4A486054800134A1F85E
:107DC80008E0A4B247F001070BF5805BBBF5405F04
:107DD80099D1B9F1010F88BF3D46EDB2022D02D00D
:107DE800062D12D0DDB90B2657E72C4B142262431F
:107DF80099184FF0020C03F802C00134DAF8002099
:107E08004A60A1F808C0A4B295E7012388F80030B9
:107E180003A80023C8F80430FFF740FA3DE702A89A
:107E2800FFF7F6FAC8B10123013D03700A2D09D8FE
:107E3800DFE805F006080608070807080F110F0015
:107E48000023037102A9114800F059F9FFF776FEE3
:107E580023E70323F5E70223F3E708261DE70F4985
:107E68001422624301EB020C09F1FF39CCF804003B
:107E780003201FFA89F9885481E700BF402E0020AB
:107E880014100010104C03008C2E0020182F002016
:107E9800DEC0ADDEFE011EF1302F0020642E002072
:107EA8002C2F0020482E0020902B002073B50D4663
:107EB8000446C8B1C1B10DF10601FFF72DFBA8B109
:107EC8000B4BBDF806006668142202FB0030012146
:107ED8000C3000F0F7F963682E600C336B600123F7
:107EE800A372002002B070BD0520FBE70A20F9E765
:107EF800642E002013B50446A8B10DF10601FFF762
:107F08000BFB90B10B4ABDF80630142101FB03238B
:107F1800DA6862B1A27A52B1DA680020013ADA600E
:107F2800A07202B010BD0520FBE70A20F9E7062081
:107F3800F7E700BF642E002002230022FFF70CBEE3
:107F480018B103230022FFF707BE05207047000081
:107F5800104B1B7813B50446ABB14FF6FF7398422C
:107F680013D001A8FFF754FA88B105230370012341
:107F78000371C48001A9084800F0C1F8FFF7DEFDCD
:107F8800002002B010BD0220FBE70420F9E708201A
:107F9800F7E700BF402E0020182F00200E4B1B785B
:107FA80007B5A3B101A8FFF733FA90B10623037010
:107FB80001A90A4800F0A3F8094B1A780AB101226E
:107FC8001A73FFF7BBFD002003B05DF804FB022025
:107FD800FAE70820F8E700BF402E0020182F0020FD
:107FE800482E002007B5ADF8060002A820F8041DA9
:107FF80001460DF10600FFF7E5FA03B05DF804FB52
:1080080013B502AC134624F8020D0A460020214697
:10801800FFF7D8FA02B010BD13B502AC134624F826
:10802800020D0A4620460021FFF7CCFA02B010BD27
:1080380020B119B103680B60002070470520704714
:1080480010B561B1B2FBF3F403FB1424A4B244B934
:10805800C0E9001484608281C381204610BD0E20CF
:10806800FCE70920FAE782B050E8022FC188B2EB9A
:10807800324F4FF0000317BF92B241EA014142EA82
:10808800014104E04268B2EB324F08BF012340E8E7
:108098000212002AE8D18DF807309DF80730002B2E
:1080A8000CBF1120002002B0704737B550E8013FDF
:1080B8009DB2C48925448489A54228BF2D1B048903
:1080C800A54202BFBFF32F8F002207E0C5EA0305D0
:1080D80040E80154002CE9D14FF001028DF803204B
:1080E8000193019B9DF803200B6002F0FF0322B16E
:1080F8000B880068184403B030BD1846FBE70A88AF
:108108004B889A4209D150E8012FC2EA024240E85E
:108118000123002BF7D1012070470020704737B5A5
:1081280050E8023F1FFAA3F5C488A54202BFBFF377
:108138002F8F00220DE0C48925448489A54228BFD9
:108148002D1BC3EA054540E80254002CE8D14FF046
:1081580001028DF803200193019B9DF803200B6019
:1081680002F0FF0322B14B880068184403B030BD09
:108178001846FBE70A884B889A4209D150E8022F33
:10818800C2EA224240E80223002BF7D101207047BF
:108198000020704701F01F024B090121914000EBBC
:1081A800830000F063B84B0910B501F01F040121EA
:1081B800A14000EB830000F04EF8E04000F0010021
:1081C80010BD01F01F0301229A404B0900EB830008
:1081D800D14300F061B84B0901F01F0150F82300AA
:1081E800C84000F0010070472DE9F0474E1E76099F
:1081F80080460F460136002558F8254008EB850AC9
:10820800E44394FAA4F4B4FA84F44FEA4519202C10
:1082180006D10135AE42EFD83C462046BDE8F0878E
:108228004C44A742F5D921464046FFF7BCFF002839
:10823800F3D0DAF80040E44394FAA4F4B4FA84F4EE
:10824800E5E750E8002F0B4640E8003C9CF0000FA3
:10825800F7D11046704750E8002F42EA010340E882
:10826800003C9CF0000FF6D11046704750E8003FE4
:1082780043EA010240E8002C9CF0000FF6D11046BA
:10828800704750E8002F02EA010340E8003C9CF0E8
:10829800000FF6D11046704750E8003F03EA01028C
:1082A80040E8002C9CF0000FF6D11046704750E8CB
:1082B800002F02EB010340E8003C9CF0000FF6D1D0
:1082C8001046704750E8003F03EB010240E8002CDD
:1082D8009CF0000FF6D11046704750E8003FA3EB22
:1082E800010240E8002C9CF0000FF6D110467047C0
:1082F8000121FFF7B0BF0121FFF7B8BF0021FFF749
:10830800C0BF37B5054602A8002400F8014DFEF7A6
:108318008BFF2A686B68116899420ED9481E106055
:1083280011F8014CEB68298A01FB0434AB68117918
:108338001B1ADBB2994238BF13719DF80700FEF78C
:1083480097FF204603B030BD37B5054602A8002385
:1083580000F8013D0C46FEF767FF2A681368591CB0
:108368001160E968641A298AB4FBF1F41C709DF85D
:108378000700FEF77DFF03B030BD000007B50B46D0
:1083880088B9124B1248134AC01A0E23C00800932A
:10839800114B0004114940F0010001F0E3FE0E20EA
:1083A80003B05DF804FB4BB9084B09480C4AC01AE6
:1083B800C0080E2300930004074BEBE703601B681B
:1083C800114603B05DF804EB184700BFC44803002A
:1083D8002C490300E24A0300354A0300E74A030038
:1083E8005E4B03002DE9F34188B93D4B3D483E4AB9
:1083F800C01AC0080E243D4B009400043C4940F0CC
:10840800010001F0AFFE204602B0BDE8F0814AB994
:10841800334B3448374AC01AC0080E24000400946D
:10842800324BEBE7D0F800C0BCF1000F09D12C4B60
:108438002C48314AC01AC0080824000400942B4B69
:10844800DCE74BB9264B27482C4AC01AC008092438
:1084580000040094254BD1E74768D7F80480B3FBA4
:10846800F8F708FB17374FB11D4B1E48244AC01AAE
:10847800C0080924000400941C4BBFE78F0709D0EB
:10848800174B18481F4AC01AC0081024000400944B
:10849800164BB3E712F0030F09D0114B11481A4AD3
:1084A800C01AC008102400040094104BA6E7C7683F
:1084B800B9420BD34C1E05691C44AC4206D8DCF803
:1084C8000C40A44602B0BDE8F0416047044B0548A3
:1084D8000E4AC01AC008102400040094034B8DE70C
:1084E800C44803002C490300E24A0300474A03003A
:1084F800E74A0300644B0300584B0300174B030083
:108508006A4B0300944B0300AC4B0300CF4B0300B2
:10851800F7B580B92A4B2B482B4AC01AC0080E243D
:108528002A4B009400042A4940F0010001F01AFE89
:10853800204603B0F0BDD0F800C0BCF1000F09D14F
:108548001F4B2048234AC01AC0080824000400947E
:108558001E4BE8E74AB91A4B1A481F4AC01AC00806
:10856800092400040094194BDDE74768D7F800E0B8
:108578000EF1FF370F4209D0114B1248174AC01AA3
:10858800C008102400040094104BCCE7C768B94217
:108598000CD34C1E05690EFB0244AC4206D8DCF82D
:1085A8001040A44603B0BDE8F0406047044B0548BE
:1085B8000B4AC01AC008102400040094034BB2E709
:1085C800C44803002C490300E24A03005A4A030046
:1085D800E74A0300584B0300174B03006D4A03009A
:1085E800934A030029DF704728DF704770B5036896
:1085F8009D6886B004460E466DB114220021684677
:1086080008F0DCFFA3680593237901962BB1012BB1
:108618000DD06846A84706B070BD01238DF800301C
:1086280023690293E368039363690493F1E70223E0
:108638008DF80030E3681B030293F5E7084670479E
:1086480000207047024B187A003018BF012070478D
:10865800E02F0020034B187A0122B0FA80F05A74F8
:1086680040097047E02F002008B510461A4608F068
:108678007CFF002008BD000008B514220021044832
:1086880008F09CFF0348FFF7EEFC002008BD00BF80
:10869800E02F0020D02F002010B5094C094B436073
:1086A8002046FFF725FE40B908F09CFC1C232074E7
:1086B8008C2205490548FFF7C3FC002010BD00BF08
:1086C800E02F0020044C0300442F0020D02F00206E
:1086D80070B5244D244E2B7A2C463BB923492448A7
:1086E800FFF71DFD306008B9686070BD0223237272
:1086F80033681A7972B1012A24D018460321FFF78A
:1087080075FF00232372636018491948BDE870405B
:10871800FFF730BDD3E90520121AB2F5805F28BFF4
:108728004FF48052D3E903159208012A014438BF57
:1087380001222844FFF756FF50B11128DDD101234B
:108748002372D2E7D3E903021044FFF74DFFF3E7A2
:10875800237C002BC9D10146BDE87040022000F0FF
:1087680009B800BFE02F0020F82F0020F42F0020C8
:10877800D02F002038B5831E012B45D8234C237AEF
:10878800002B41D0022B09D1032830D0204B1B6885
:108798000022E2601A793AB1012A22D0637C7BBBBD
:1087A800BDE83840FFF794BFD3E905128D1AB5F537
:1087B800805F94BF521902F580529A619142EDD1BF
:1087C80002284FF0000308BF19462372104B18BF48
:1087D8000D211868FFF70AFF0E490F48FFF7CAFC7A
:1087E800DCE71A6901321A615B699A42E7E7E368D4
:1087F8000133082B01D8E360D0E70023E360DFE70B
:10880800BDE8384008F0DEBB38BD00BFE02F0020CF
:10881800F82F0020F42F0020D02F002000F0FD03B7
:10882800012B08D1044B00225A74421E5042504179
:108838001874FFF74DBF7047E02F002010B5064CA5
:10884800201DFFF755FD28B9637C1BB9BDE8104012
:10885800FFF73EBF10BD00BFE02F00202DE9F34118
:1088680080460D460F4801A916461F46FFF71DFC16
:108878000446A8B11C22002108F0A0FE2D0B0123FC
:10888800237101A9C4F80080A760E5606661054806
:10889800FFF735FCFFF7D2FF002002B0BDE8F081FA
:1088A8000420FAE7D02F00202DE9F74381468846B7
:1088B800104801A917461E46FFF7F7FB0446B0B15A
:1088C8001C22002108F07AFE00250A9BA36001A95A
:1088D8002571C4F80090C4E9037866610548FFF77C
:1088E8000EFCFFF7ABFF284603B0BDE8F083042079
:1088F800FAE700BFD02F00202DE9F047B0F8069026
:108908004479D2F800A09DF8208009FB04F4043CC7
:1089180006460AEB0300A0420F4688BFA4EB030AF1
:10892800191DC2F800A0B1FBF9F509FB15114DB9E5
:10893800A9EB0104544528BF5446BAF1000F04D1ED
:10894800BDE8F0873668013DF1E704317B197018FE
:108958002246B8F1000F0ED001461846AAEB040AC9
:1089680008F003FED145254436684C464FF0000117
:1089780028BF5446E1E71946F0E7F8B546790146BD
:10898800721E0546002393422D6803D30024A64295
:1089980002D8F8BD0133F6E70F682846FFF7D4FC84
:1089A80001343946F3E72DE9F843068ACD1C07461A
:1089B800FFF7A7FC043E35440446B5FBF6F5F0B1D5
:1089C8004FF48073EDB28380C680013D0760814615
:1089D8004FF00008A84512D23846FFF792FC064629
:1089E80048B163790133637108F10108C9F80000DF
:1089F80007608146EEE72046FFF7BFFF3446204672
:108A0800BDE8F88301210430FFF75CBC10B50121F3
:108A180004460430FFF761FC10F0FF0F04D1204634
:108A2800BDE81040FFF7A9BF10BD1FB504AC44F85E
:108A3800042D002200922246FFF75EFF04B010BD0D
:108A4800064B10B500241C70054B1C60BFF35F8FEC
:108A58000449054800F0DCF8204610BD0430002029
:108A680008300020304C0300FC2F002002681368F7
:108A78005268934291BFD01A80680130801888BF2D
:108A8800C01A70472DE9F84303681D685C68A54261
:108A980084BF836801331746884694BF641B5C1BF8
:108AA800C2684168BC42064605FB02110CD37A43F2
:108AB800404608F05AFDB3683D449D4288BF0025F2
:108AC80033681D60BDE8F88304FB02F94A46404656
:108AD80008F04BFDF26871683C1B624308EB090023
:108AE80008F043FD33681C60ECE7036881681A6886
:108AF8005B688B4234BF01330023D31A5842584174
:108B08007047F7B5044602A8002300F8013D0D465A
:108B1800FEF78AFB2046FFF7E8FF10B1237C002B05
:108B28003CD12268A66853685168B14234BF01310C
:108B38000021516030B11168A068814234BF013111
:108B480000211160E2686068511E072920D8DFE81B
:108B580001F004101F141F1F1F182A78C254204642
:108B6800FFF784FF23689A68824200D29860002445
:108B780015E02A8820F81320F1E72A6840F8232016
:108B8800EDE7D5E9006700EBC300C0E90067E6E759
:108B9800294602FB030008F0E8FCE0E704249DF8FE
:108BA8000700FEF765FB204603B0F0BDF7B50646A3
:108BB8000F46144600259AB102A800F8015DFEF799
:108BC80033FB3046FFF752FFA0420CD3224639460A
:108BD8003046FFF757FF2C469DF80700FEF748FB85
:108BE800204603B0F0BD0524F6E737B5054602A8D0
:108BF800002400F8014DFEF717FB0C2221462868D7
:108C080008F0DCFC9DF80700FEF732FB03B030BD2E
:108C18000B684A684360934208BF0023016008BF9D
:108C280043607047436843B10268916852680B44D7
:108C38009342436004BF0023436070470D4930B539
:108C4800A1F594720225914201D800200EE08B1AFA
:108C5800DB1093FBF5F302EBC30452F83330834285
:108C680005D802D204F10802EDE7606830BD21465C
:108C7800E9E700BF804D030008B5FFF7DFFF024BAF
:108C8800002808BF184608BD454C03000B7B23B1DC
:108C98004B6803600023037170470B68036001236E
:108CA800F9E703684A68896810B5D41A8C428BBF03
:108CB8005B1800230360026098BF037110BD03684E
:108CC8000A68896810B59C1A8C428BBF5B1A01230D
:108CD8000360026098BF037110BD037910B50446A4
:108CE8001BB1FFF7DEFF206810BDFFF7E8FFFAE7CA
:108CF80038B5084C04F108030546002818BF1C467F
:108D080023682BB11A6822605B6828469847F7E702
:108D180038BD00BF1430002020B9054B01225A701D
:108D2800FFF7E6BF012802D1014A9070F8E77047C3
:108D38000C30002020B9034B01225A70FFF7D8BF2E
:108D4800704700BF0C30002038B50B4C237883B92E
:108D58000A486360A3602361E36000F033F90546C5
:108D680008F040F908B900F03BF9012323702846C0
:108D780038BD8525FBE700BF0C300020218D02009F
:108D880037B502A80023094C00F8013DFEF74CFA5C
:108D9800E368013BE360E56815B900F033F9A570B5
:108DA8009DF80700FEF764FA03B030BD0C300020D0
:108DB800012813B509D003D303281BD002B010BD76
:108DC8000F4B0122C3F88020F8E702A800230D4CBE
:108DD80000F8013DFEF728FA23780BB9FFF7B4FF36
:108DE800E3689DF807000133E3600123A370FEF7F1
:108DF8003FFAE3E700F0F4F8FFF7C2FFDEE700BF51
:108E080000E100E00C30002031DF70471FB58DF81D
:108E1800070004A8002300F8013DFEF705FA08F052
:108E2800E1F850B90DF107010748FFF76AFE064857
:108E3800FFF75BFE08B100F079FB9DF80F00FEF725
:108E480017FA05B05DF804FB6448030007B520B1C4
:108E580003280BD003B05DF804FB0F4B1B78012BE4
:108E6800F8D100F063FB00F069FBF3E702A80023E8
:108E780000F8013DFEF7D8F907480378012B05D122
:108E88000649013000F012FB00F03EFB9DF8070098
:108E9800FEF7EEF9DEE700BF70300020158E020005
:108EA80013B5124C2378F3B9114A002808BF1046AD
:108EB8000288A4F8012002A800F8013DFEF7B4F9E1
:108EC80008F090F830B90B49601C00F0EFFA40B98F
:108ED80000F01AFB01239DF807002370FEF7C8F97C
:108EE800002002B010BD8520FBE700BF70300020D5
:108EF80040510300158E020007B502A8002300F8B0
:108F0800013DFEF791F908F06DF818B900F00EFB75
:108F180000F014FB9DF80700FEF7AAF90448FFF7D4
:108F280064FE044B00221A7003B05DF804FB00BF16
:108F380064480300703000202DE9F7430024DFF86F
:108F4800589005460E46A0460DF107008DF807809B
:108F5800FEF76AF908F046F8074638B93246294656
:108F68004846FFF723FE044600F0CEFA9DF80700B6
:108F7800FEF77EF947B131462846FFF745FF42F232
:108F880007039842044605D0022CDDD0204603B0E2
:108F9800BDE8F0830524F9E764480300F8B5054601
:108FA8000C4604B9F8BD402C264628BF4026F7B227
:108FB80039462846FFF7C0FF0028F9D1A41B3544DD
:108FC800EFE70000054A13792BB9012110601171F0
:108FD8005371184670478520704700BF74300020D1
:108FE800074B1A68D2075FBFC02283F8002301220B
:108FF8001A604FF080430122C3F81825704700BF5C
:1090080000E100E0044B01221A604FF08042D2F8E0
:109018001834DB03FBD470470C000040154B07B530
:109028001A687AB100221A601B680093009B4FF0FF
:1090380080430122C3F808230F4B587910B95A719D
:109048001B6898470D4B1A6882B100221A601B688A
:109058000193019B4FF080430222C3F80823064B7B
:109068001B68012003B05DF804EB184703B05DF8F6
:1090780004FB00BF000100407430002004010040E0
:1090880000F1804000F5C040002382B0036003680F
:109098000193019B02B07047800000F1A040D0F816
:1090A800003723F44033C0F80037D0F8003743EADC
:1090B8000141C0F800177047054B4FF0FF320728F1
:1090C80043F8202084BF1B1883F84820704700BF4E
:1090D8007C30002010B5164C94F8583033BBFF2173
:1090E800E2180133202B82F83010F9D10021C8B2E0
:1090F800FFF7E2FF01310C29F9D1042200210D48C4
:1091080008F05CFA0C4BC02283F8062340221A6050
:109118004FF4BE70FFF7B4FF084B4FF00042C3F89E
:109128000423012384F85830002010BD0820FCE7F0
:109138007C300020D030002000E100E000600040DA
:10914800034B93F85800003018BF0120704700BF48
:109158007C300020F0B5394D2C18944694F93040F5
:10916800002C68DA8E78C6F34006002E15BF00235F
:10917800082308270C27BB4201D10420F0BD55F86D
:10918800232001324FEA830441D12F1845F823C028
:1091980087F8303016B9EA1882F848008A785607F6
:1091A80016D4D70735D5820002F1A042D2F800675D
:1091B80026F00206C2F80067214FC60800F0070C27
:1091C800012202FA0CF217F806C042EA0C02BA555C
:1091D8008A780E7812F0020224D004F1804303F555
:1091E800C0430002D3F8102522F4473222F440721B
:1091F800C3F810253604D3F8102500F4F85006F407
:10920800403630431043C3F810050020B6E7013359
:10921800B1E74E7800F5E0724FF0A047B60047F886
:109228002260C9E7083B2B4493F8500040EA8616B1
:1092380083F85060E9E70820A0E700BF7C300020F1
:10924800D030002038B5204C251895F93020072A51
:1092580018DD224492F848309B09032B0DD14FF0BA
:10926800A043D3F81035C34013F0010F0CBF0221FF
:109278000321BDE83840FFF70FBF012B14BF0321BE
:109288000221F6E7D3B2072B1CD8930003F18043E1
:1092980003F5C043D3F8100540F00100C3F81005EA
:1092A80002F14000800080B2FFF7EAFE51B195F963
:1092B800303054F823302BB1012303FA02F2034B68
:1092C800C3F8042338BD00BF7C3000200060004094
:1092D8004FF0A043D3F8103523FA00F000F0010056
:1092E800704700002DE9FF470024584A584E594D51
:1092F800019401211368A2F5C040012B80B206D168
:10930800D6F804330B4202D0FFF7BAFE0C430432FE
:10931800AA424FEA4101EDD14F4B1B68012B0AD1FC
:109328004FF4BE70FFF7ACFE4FF0A04344F000448A
:10933800D3F81035019314F0FF0F1AD0474F0025CA
:109348000126344210D0AB0003F1804303F5C0433B
:10935800D3F81005D3F8101557F82530C0F30420BA
:10936800C1F3014103B198470135082D4FEA46067C
:10937800E7D1002C66DA00224FF0FF33CDE9022353
:10938800DFF8D8900127002634464FF0A04809EBB3
:10939800060393F95020531C45D0D2B222F0C005E1
:1093A800E90804A8084402F0070310F804CC07FAF7
:1093B80003F31CEA030F36D009EB050C92099CF95C
:1093C80030C059F82CA0BAF1000F0AD1032A2AD1CB
:1093D8000DF1080E1EF801C04CEA030C0EF801C08E
:1093E80001E0032AF4D005F5E07110F80C0C58F8E8
:1093F80021101842C1F3014105D0022913D1032AD3
:109408000BD1114604E003290DD1032A05D102210D
:109418002846FFF741FE0134E4B2BAF1000F02D04A
:1094280011462846D0470136042EB0D154B14FF02A
:10943800A043019AD3F81035934203D00193029BBD
:109448000393A0E704B0BDE8F08700BF00610040C7
:1094580000600040206100407C6100407C300020BA
:10946800014B1B68184700BFD83000200D4B9842AD
:1094780037B50D4610D102A8002300F8013DFDF7CD
:10948800D3FE094B1C7914B901221D601A719DF88D
:109498000700FDF7EDFE14B9002003B030BD112020
:1094A800FBE700BF00200040D830002010B5124C68
:1094B8002278FAB9114B1960037813F0010F104B99
:1094C8001EBFD3F8042542F00102C3F80425D3F8DF
:1094D800002222F00102C3F800224378094A5B0106
:1094E800DBB282F80D334FF400531360012323706D
:1094F800002010BD8520FCE7E4300020E03000208B
:1095080000D0004000E100E0064B00221A6082B063
:109518001B680193019B044B0122C3F804231A60C2
:1095280002B0704700D1004000D00040024A012339
:10953800C2F808335360704700D00040064A012340
:10954800C2F808335360054B4FF40052C3F880202B
:10955800034B00221A70704700D0004000E100E081
:10956800E4300020074B00221A6082B01B68019388
:10957800019B054BD3F80805044B1B68C0B202B029
:10958800184700BF00D1004000D00040E030002064
:109598000023435082B043580193019B02B07047A7
:1095A8001FB501238DF80030044BCDE90110D3E934
:1095B80000126846904705B05DF804FBE8300020CB
:1095C8007FB5374AD2F82461002E48D010464FF4B0
:1095D8009271FFF7DDFF02238DF80030D2F8803456
:1095E800C2F880340393D2F83C3502932D4BDA68E5
:1095F80001920022C3E906226846D3E90012904787
:10960800274AD2F844317BB14FF4A2711046FFF7D4
:10961800BFFF244B996939B10021C3E90611D96804
:10962800D2F83C05FFF7BCFF1D4AD2F82031A3B1A0
:109638004FF490711046FFF7ABFF1A4B596961B1AF
:10964800D2F84C150291002299688DF800200191FA
:109658005A616846D3E90012904704B070BDD2F849
:109668001031002BCCD04FF488711046FFF790FFD3
:109678000C4BD2F83C0599698842C1D1DC69D9689C
:1096880064B1D2F8005225F02005C2F800521A69D8
:109698009C61DA60DE61FFF783FFB1E79C61FAE75E
:1096A80000200040E83000202DE9F8435A4F0679A1
:1096B8009146242202FB0672044692F820200D46A9
:1096C800002A40F0A28055490068FFF7CFFE804687
:1096D800002840F09D8029682368481C0BD04FF073
:1096E800A04001228A40C0F8082501F5E0724FF039
:1096F800030C40F822C06868421C1FBF00F5E072E6
:109708004FF0A04C4FF0000E4CF822E0AA6995F8F3
:1097180014C0C3F824256A7DBCF1010F4CEA02028B
:10972800C3F86C25C3F80C15C3F814051DD1AA6835
:10973800511C1FBF02F5E0714FF0A0404FF0000C24
:1097480040F821C0E968481C0BD04FF0A04C01201C
:109758008840CCF8080501F5E0704FF0030E4CF88E
:1097680020E0C3F80815C3F8102524237343FA181A
:10977800C2F804902A69FA50B9F1000F34D04FF4B6
:10978800887120682D7FFFF703FF4FF490712068E0
:10979800FFF7FEFE4FF492712068FFF7F9FE20688C
:1097A8004FF4A271FFF7F4FE22681D4BC2F8043390
:1097B800120B51B20029A8BF01F160404FEA4513CE
:1097C800BABF184802F00F0500F56140DBB2B4BF1C
:1097D800435580F8003302F01F02012303FA02F216
:1097E8004909114B43F8212023680822C3F80025B2
:1097F800242303FB06730022C3E906225A610122CF
:1098080083F820204046BDE8F8834FF00808F9E7C0
:109818004FF01108F6E700BFE8300020C9950200B4
:109828001003020014ED00E000E100E001F06043E5
:10983800B3F1005F2DE9F041074632D11C4B0679A0
:10984800242505FB063598466C6964BB6A61A960E6
:1098580000684FF49071FFF79BFE4FF4AC713868C5
:10986800FFF796FE3B686A69A968C3F84415C3F810
:10987800482501229A606A68BAB9D3F82011D3F84A
:10988800582149B9002AF8D00F20242303FB068663
:1098980000237361BDE8F081002A14BF0F20002067
:1098A800F3E71020F6E71120F4E72046F2E700BFBF
:1098B800E83000200379044A242101FB0323586976
:1098C800003018BF01207047E8300020F8B501F0DB
:1098D8006043B3F1005F04460F465ED10379304D13
:1098E800242101FB0351486820B121684FF4047614
:1098F800C1F80863242101FB03539E6956B1D96955
:10990800002939D020B123684FF40472C3F8042326
:10991800112030E09A61DF60DE614FF488712068C1
:10992800FFF736FE4FF4A2712068FFF731FE236877
:10993800C3F83475C3F8382516BB01221A6022799A
:10994800242101FB0251496809BBD3F81041D3F81F
:109958004411D3F8240114B909B90028F5D02423F7
:1099680003FB02550023984214BF0320184699426E
:10997800AB6118BF0F20F8BD1F61DA610126CCE783
:10998800D3F8002242F02002C3F80022D7E74FF4B0
:109998000472C3F804230020EDE71020EBE700BFB2
:1099A800E83000202DE9F347002406460F4690468C
:1099B80000F5A0754FF48039A24604F150002B68D9
:1099C800800080B26BB1D6F8043309FA04F21A4267
:1099D80007D0C5F800A02B680193019BD7E9003197
:1099E80098470134E3B2984505F10405E5D802B07B
:1099F800BDE8F087F7B506792F4D0C237343EF18B0
:109A08003C7A002C56D1EA504B687B604779036852
:109A18002246D0B2874243D81A0B54B2C878002CD9
:109A2800A8BF04F16047D2B2BABF02F00F0C234FAF
:109A380007F561474FEA4010C0B2B4BF07F80C0001
:109A480087F800036409012002F01F021C4F00FA86
:109A580002F247F824204A78D3F8044502F00302BA
:109A680024F003042243C3F80425D3F808458A7870
:109A780024F0030402F003022243C3F80825D3F8B4
:109A880010450A7824F00F0102F00F020A43C3F8C8
:109A980010250C2303FB06552872002003B0F0BDE7
:109AA80002F15000013243F8204053F820000190A1
:109AB8000198AEE70820F1E70C31002014ED00E032
:109AC80000E100E0036801221A600379034A0C21CF
:109AD80001FB032302221A72704700BF0C310020D9
:109AE80037B54FF480348C4000687BB101F15003E6
:109AF8009B000025C550C3580193019BC0F804433F
:109B080001F5A87140F8212003B030BDC0F8084322
:109B1800F6E7F0B404689DF81070D4F8005240F2EB
:109B280001168E4025EA0605C4F80052D4F8005202
:109B38002B43C4F800323B46F0BCFFF7D1BF00000E
:109B4800042202490248FFF72DBF00BF0C31002054
:109B580000800040042202490248FFF723BF00BFEB
:109B68001831002000900040042202490248FFF703
:109B780019BF00BF2431002000A00040062202497E
:109B88000248FFF70FBF00BF3031002000A001409E
:109B9800062202490248FFF705BF00BF3C310020FA
:109BA80000B00140054A4FF0A043105CD3F80435DB
:109BB80023FA00F0C04300F0010070477051030021
:109BC800044B1A5C012393404FF0A042C2F80C35B5
:109BD800704700BF70510300044B1A5C0123934087
:109BE8004FF0A042C2F80835704700BF705103001B
:109BF80008B50020FFF7F0FF0120FFF7EDFF022076
:109C0800FFF7EAFF0320BDE80840FFF7E5BF08B506
:109C18000020FFF7D5FF0120FFF7D2FF0220FFF752
:109C2800CFFF0320BDE80840FFF7CABF074A4FF03F
:109C3800A041105CD1F804350122824022EA0300D9
:109C48001340C1F80805C1F80C357047705103007E
:109C5800054A4FF0A043105CD3F8103523FA00F002
:109C6800C04300F0010070476C5103000D2809D073
:109C78000E2809D00F2809D010280CBF03204FF058
:109C8800FF3070470020704701207047022070475E
:109C9800014B185C704700BF6C510300C20708B540
:109CA80001460CD54FF0A0430322C3F84427C3F85C
:109CB8004827C3F84C27C3F85027FFF799FF8B07AD
:109CC8000AD54FF0A0430C22C3F83427C3F838272D
:109CD800C3F83C27C3F8402708BD037813F00402F3
:109CE80016D003F00303012B03D0022B09D0012067
:109CF80070470A6800880232C0F3831002440A6081
:109D0800F5E70B684288023303EB92130B60EEE72A
:109D1800104670472DE9F04F89B00546861C08A803
:109D2800484C019200230F4600F8113DFDF77CFADC
:109D380023683B60D4E901231344226801339B1A4A
:109D480004F21C4704F5836A04F21448B3421AD398
:109D5800019A0023002A6DD0012262F3010343F027
:109D6800040365F389132168A2689DF80F000A406F
:109D780003320E4444F822302660FDF779FA0120B8
:109D880009B0BDE8F08F01213846FEF79BFA50462E
:109D9800FEF7B1FA4046FEF7AEFA0DF12009606809
:109DA800D4F808B049F8100D00EA0B00033004EBB2
:109DB80080004946FFF791FF049BB0B90BEA030204
:109DC80004EB8202D16805919A1C013303EA0B0B5C
:109DD80004EB8B0C01F00303012B0492DCF80CB0AC
:109DE80020D0022B04D083460BE00BEA0300DDE70A
:109DF800BDF816309B0903334FEA1B4B02EB930364
:109E080004934046FEF77AFA08B1049B636059460A
:109E18003846FEF757FAD4E9012313442268013380
:109E28009B1A93E7BDF81430C3F383134FEA1B4B17
:109E38001344E5E7022262F3010343F0040365F3E8
:109E48009F5390E718320020034BD3E90030C31A20
:109E580058425841704700BF183200202DE9F0439E
:109E680087B0FFF7F1FF0646002840F0FC807F4DE1
:109E7800C5F81804BFF34F8F6868AC6806AF47F899
:109E8800100D2040033005EB80003946FFF725FF11
:109E9800029B18B1D5F81824002A5FD004EA0302FF
:109EA800991C013305EB8202234005EB8303D2683A
:109EB800DB68049302F00303022B0392029162D140
:109EC800BDF80E306A484FEA9318B8F1500FC146F2
:109ED80028BF4FF0500969F38F1309F10801ADF855
:109EE8000E30FEF760FD0746002800F0A780FEF759
:109EF80089FD03A9002308223846FEF796FD02993A
:109F080024EA01060136B600B14535D95FFA89F968
:109F18007EB3F6B2A9EB0609214003315FFA89F452
:109F2800B146544E05EB810108234A463846FEF7F0
:109F38007CFD36B109F10803224631463846FEF762
:109F480074FD029B08F1030803EB98030293D5F80C
:109F58001834002B4BD1D5F810445BE02A689A429C
:109F680004D86A60304607B0BDE8F08304EA03000D
:109F780088E740493446D7E72140033108234A4659
:109F880005EB8101DAE7012B58D1BDF80C303848D0
:109F9800C3F38311062928BF062161F3891302310F
:109FA8008900ADF80C30FEF7FEFC0746002845D0C6
:109FB800FEF728FD0023082203A93846FEF735FDE1
:109FC8000026BDF80C20C2F38312B31C96424FEA58
:109FD8008303BCD202994A1C21400331029205EB4B
:109FE800810104223846FEF720FD0136E9E73846AC
:109FF800FEF70CFDFFF728FF80F00100C6B2B1E7BD
:10A00800E3685B7923B1236839461B682046984783
:10A01800E3681C68002CF3D13846FEF7F7FC06A865
:10A0280000F8114DFDF700F9D5F818340BB9029B6B
:10A038006B609DF80700FDF71BF9DBE7D5F81044C6
:10A0480054B90D4B0D480E49C01AC008000440F021
:10A05800020000F06FF8CDE7236820469B68984718
:10A06800E3681C68ECE700267CE700BF1832002094
:10A07800A848030024320020C4480300FC48030019
:10A08800745103002DE9F74F284C80460F4692463D
:10A0980001A9012218469B46D4F80890FFF73AFE1A
:10A0A80088B3019D0026A91C5E4506EB010234D148
:10A0B80000211F48FEF7C5F880F310006A1C02EA69
:10A0C800090204EB8202000405EA0903033340EAAB
:10A0D8001840D06014F8232068F3C50204F8232040
:10A0E80034F8232066F3891224F8232054F8232017
:10A0F800012167F39F2244F8232061F301026FF3E3
:10A10800820204F8232094F820341BB1FFF7A6FE3E
:10A118000028FBD103B0BDE8F08F09EA020204EB86
:10A1280082025AF82630D3600136BDE71832002083
:10A138003436002000231A46FFF7A4BF13B502AC3B
:10A14800012344F8042D2246FFF79CFF02B010BDFE
:10A1580007B5CDE9002302236A46FFF793FF03B052
:10A168005DF804FB1FB5CDE90123069B039301AA03
:10A178000323FFF787FF05B05DF804FB1FB5CDE9A2
:10A188000023069B0293079B03936A460423FFF769
:10A1980079FF05B05DF804FB094A38B50123D2F808
:10A1A800104482F820341D4604B938BDE3685D7157
:10A1B800236820465B689847E3681C68F4E700BF9B
:10A1C800183200204FF48C72002107F0F7B920B143
:10A1D80000F58C730022984200D17047027001305C
:10A1E800F9E70000C02AF0B545D0B2F5807F44D029
:10A1F800802A40F0DE800A23036000F108034360F0
:10A2080052090025AA4201F1040138D102680C2A3A
:10A2180047D00E2A7CD00A2A2BD1674E674D0024DE
:10A22800D86856F824101A684A40C0F30721013448
:10A23800695C4A40010E0A2C695C82EA0142C1B29B
:10A2480003F11003695C82EA0162C0F30741695CAB
:10A2580082EA012253F80C1C1A6082EA010253F8C0
:10A26800081C5A6082EA01029A6082EA0002DA60F7
:10A27800D6D100209FE00C23BEE70E23BCE711F8DF
:10A28800024C11F8036C240444EA062411F8046C07
:10A29800344311F8016C44EA066443F8254001355B
:10A2A800B0E7454E454D0024586956F824101A6801
:10A2B8004A40C0F307210134695C4A40010E082C6A
:10A2C800695C82EA0142C1B203F11803695C82EA5F
:10A2D8000162C0F30741695C82EA012253F8141C49
:10A2E8001A6082EA010253F8101C5A6082EA0102DD
:10A2F80053F80C1C9A6082EA010253F8081CDA60D1
:10A3080082EA01021A6182EA00025A61CCD1B0E7FE
:10A31800294D2A490024D8691E6855F824201F6948
:10A328007240C0F3072601348E5D7240060E072C7A
:10A338008E5D82EA0642C6B203F120038E5D82EA90
:10A348000662C0F307468E5D82EA062253F81C6C4B
:10A358001A6082EA060253F8186C5A6082EA06020A
:10A3680053F8146C9A6082EA0602D6B2DA608E5DFF
:10A3780086EA07064FEA1267CF5D86EA0766C2F3E8
:10A388000727C2F30742CF5D8A5C86EA072686EA7A
:10A39800024253F80C6C1A6182EA060253F8086C00
:10A3A8005A6182EA060280EA02009A61D861B2D153
:10A3B8005FE76FF01F00F0BD8C6203008951030056
:10A3C8002DE9F04F47680D683B684C688E68C9688E
:10A3D800DFF89882DFF898E2DFF898C25D407B6882
:10A3E8005C40BB685E40FB684B4001688FB0491019
:10A3F8000139009107F1300151F8107C0197EFB253
:10A4080051F8200C58F8277087EA00091F0E954864
:10A418005EF8277089EA0709C4F307274FEA146B27
:10A428005CF827705EF82BB089EA0709C6F307477E
:10A43800203150F8277089EA0709E7B25FFA89F0F6
:10A4480058F82770029051F83C0C87EA000A2F0E42
:10A4580084485EF827708AEA070AC6F30727C4F318
:10A4680007445CF827708AEA070AC3F3074750F8DD
:10A4780027708AEA070AF7B2CAF30720039058F848
:10A48800277051F8380C474087EA0B07C3F3072BAE
:10A4980074485CF82BB087EA0B07C5F3074BDBB2AF
:10A4A80050F82BB058F8233087EA0B07C7F307405A
:10A4B800360E049051F8340C5EF82660C5F3072573
:10A4C8004340684873405CF8256050F8244051F8D0
:10A4D8002C0C059073406340C3F30740069051F875
:10A4E800280C0790F8B20890C3F3072009901D0EB6
:10A4F800C9F30740DBB20A900D93009B4FEA1A603C
:10A508000B90002B51F8240C0C905FFA8AF4C7F3D7
:10A51800072B4FEA1966CAF3074AC9F307294FEA16
:10A5280017675CDC5049039B019811F803C0029B34
:10A538000C5DCB5C43400498085C83EA0C2383EAF7
:10A548000043485D059D83EA006311F80B00137012
:10A558006C4084EA00240698089D085C4D5D84EAF6
:10A568000044885D079E84EA00640998085C754089
:10A5780085EA00250A980C9E085C85EA00450B9838
:10A58800085C85EA00650D98085C704011F8096060
:10A5980080EA062011F80A60C95D80EA064080EA70
:10A5A8000161180A5070180C1B0E9070D370230AA2
:10A5B8005371230C93712B0A53722B0C93720B0A51
:10A5C80014711572240E2D0E117353730B0C090E92
:10A5D800D471D5729373D1730FB0BDE8F08F029B1D
:10A5E8005EF8255058F823301E4858F824405EF885
:10A5F80027706B40019D6B40039D5CF825505D40C2
:10A60800049B50F823305D405EF826305C40059B83
:10A618005C405CF82B305C40069B50F823305C4073
:10A62800089B58F823600B9B5EF823305E40079B1D
:10A638005E40099B5CF823305E400A9B50F823304B
:10A648005E400D9B58F823307B400C9F7B405CF8A4
:10A6580029707B4050F82A707B40009F013F00978B
:10A66800CAE600BF8C5A0300895103008C520300CC
:10A678008C5E03008C5603002DE9F04F47680C6888
:10A688003B684E688D68C968DFF89C82DFF89CE2F9
:10A69800DFF89CC25C407B685E40BB685D40FB683D
:10A6A8004B4001688FB049100139009107F1300122
:10A6B800E7B251F8100C58F82770019051F8200CA7
:10A6C80087EA0009370E96485EF8277089EA070975
:10A6D800C3F307274FEA136B5CF827705EF82BB0BB
:10A6E80089EA0709C5F30747203150F8277089EA36
:10A6F8000709DFB25FFA89F058F82770029051F81D
:10A70800340C87EA000A270E85485EF827708AEA23
:10A71800070AC5F30727C3F307435CF827708AEADB
:10A72800070AC6F3074750F827708AEA070AEFB204
:10A73800CAF30720039058F8277051F8380C47409F
:10A7480087EA0B07C6F3072B75485CF82BB087EA36
:10A758000B07C4F3074BF6B250F82BB058F8266035
:10A7680087EA0B07C7F307402D0E049051F83C0CFD
:10A778005EF82550C4F30724464069486E405CF8EB
:10A78800245050F8233051F8280C07906E405E4052
:10A79800F8B251F82C3C0890C6F3072005930990AD
:10A7A800CAF30743C9F3074006930A904FEA1A60B1
:10A7B8000B9051F8240C0C90C6F307400D900098AC
:10A7C8000028C9F3072B4FEA17634FEA1664F5B25E
:10A7D8005FFA8AFAC7F307274FEA19695CDC51491F
:10A7E8000398019E11F800C00298085C7040049E0E
:10A7F8008E5D80EA0C2080EA06400E5D11F80B4061
:10A8080080EA06604E5D059D10706E4086EA04265B
:10A81800069C0C5D86EA0446CC5C099B86EA0464C7
:10A82800CE5C089BCD5C079B5D400A9BCB5C85EAB0
:10A83800062585EA03450B9B0C9ECB5C85EA0365E0
:10A8480011F80A307340CE5D83EA06230D9E8E5DB3
:10A8580011F8091083EA064383EA0163010A51707B
:10A86800010C9170000E210AD0705171210C917168
:10A87800290A5172290C9172190A14711572240E41
:10A888002D0E13735173190C1B0ED471D57291735D
:10A89800D3730FB0BDE8F08F029E5EF8244058F8DD
:10A8A80026601F485EF823305EF829905CF8277010
:10A8B8007440019E7440039E5CF826607440049EB8
:10A8C80050F82660744058F825605E40059B5E404D
:10A8D8005CF82B305E40069B50F823305E40089BA6
:10A8E80058F823500B9B5EF823305D40079B5D4072
:10A8F800099B5CF823305D400A9B50F823300C9884
:10A908005D4058F82A3083EA090343407B400D989C
:10A91800034F57F82070009801387B400090C7E635
:10A92800B46B0300B4620300B4630300B46F0300A4
:10A93800B467030010B50129144621461A4603D10D
:10A94800FFF73EFD002010BDFFF796FEFAE72DE960
:10A95800F041B2F5C07FADF5467D064688461546FE
:10A9680078D84FF4D07200215EA806F027FE18A808
:10A97800FFF728FC64AF2B0A00248DF88A312A4699
:10A988003023414638468DF88B518DF88F31ADF81C
:10A99800884106F0EAFD80237B5504A91935234632
:10A9A8005B540133202BFBD14FF4807218A8FFF7BA
:10A9B80019FC002410220021684606F0FFFD0DF264
:10A9C8007717A8460DF1FF3307F1100113F8012F8F
:10A9D80017F8010F4240B9421A70F7D1B8F1100FB9
:10A9E80094BFA8EB0808A8F110086B466A46012135
:10A9F80018A8FFF79FFFB8F1000FE3D10CAB1819A7
:10AA08001022694606F0B1FD9DF87B311034013300
:10AA1800302C8DF87B31CDD14FF480720CA918A859
:10AA2800FFF7E0FB06F1300414AB1A46012118A821
:10AA3800FFF780FF3046102214A9103606F095FD66
:10AA4800B442F1D118A8FFF7C2FB00200DF5467DEE
:10AA5800BDE8F0816FF03700F8E7F0B58DB0044637
:10AA68000D4630220021684606F0A8FD002704F1B3
:10AA780020060DEB070304F1100111F8012D013236
:10AA8800D2B20A700AB9A142F7D122460121304652
:10AA98001037FFF74FFF302FEBD16B1E0DF1FF3250
:10AAA8002F3512F8011F13F8010F41409D42117014
:10AAB800F7D169464FF480723046FFF793FB1022B6
:10AAC80008A9204606F051FD00200DB0F0BD4FF456
:10AAD800A072002106F072BD10B5044638B12030CE
:10AAE800FFF775FB04F5A07300229C4200D110BD4E
:10AAF80022700134F9E72DE9F0418369B3F5C07F8D
:10AB0800E0B00446884617462DD8C3F5C073934273
:10AB180029D34FF4C0720021684606F04FFDD4F8DF
:10AB28003831A269D4F83C01694698470546E8B926
:10AB3800A669B8F1000F07D037B10DEB06003A4609
:10AB4800414606F012FD3E44324669466846FFF724
:10AB5800FEFE69462046FFF780FF01232361284651
:10AB680060B0BDE8F0816FF03705F8E76FF03305A6
:10AB7800F5E72DE9F041044688B0884617460021DC
:10AB8800202204F1200568461E4606F017FD2846D7
:10AB9800FFF718FB0F9BA36142F21073E36169464C
:10ABA800C4F83881C4F83C714FF480722846FFF726
:10ABB80019FB0E9A31462046FFF79DFF08B0BDE805
:10ABC800F08113B530240194049C0094FFF7D1FF61
:10ABD80002B010BD2DE9F04190B0B2F5806F044687
:10ABE8000E4615469846169F4AD8B7F5807F4AD82C
:10ABF8003022002104A806F0E1FC2269E3699A42A8
:10AC080001DC636943B13A4641462046FFF773FFCA
:10AC180060B110B0BDE8F08147B141463A4604A89A
:10AC2800FFF795FE04A92046FFF717FF04F1200758
:10AC380045B904A92046FFF710FF236901332361B2
:10AC48002846E6E704F1100212F8013D0133DBB2B1
:10AC580013700BB99442F7D16B462246012138464E
:10AC6800FFF768FE102DA84628BF4FF010083046A1
:10AC78004246694606F079FC4644A5EB0805D7E745
:10AC88006FF03500C5E76FF03700C2E707B500235E
:10AC98000093FFF79FFF03B05DF804FB28B139B1BB
:10ACA8000023C1E900301846704748F21050704739
:10ACB80048F21350704730B1036848F240508B4255
:10ACC80008BF0020704748F21050704730B119B1E2
:10ACD8000B68934205D30A600020704748F213506E
:10ACE800704748F2145070472DE9F041884600AF8C
:10ACF80006461146404615461C46FFF7CFFF08BBDF
:10AD080021464046FFF7CAFFE0B998F80430104AD8
:10AD180052F82380B8F1000F17D056B90D4A32F80F
:10AD2800133033B10E336A46DB08A2EBC3039D46EA
:10AD38006E46224629463046C04718B9064B2B6056
:10AD4800063B2360BD46BDE8F08148F20350F9E7B1
:10AD5800BC730300B47303007652464D70B50546C4
:10AD68000C461E46FFF79AFF70B9AB796AB1B34239
:10AD78000ED12979094B53F8213063B11146204689
:10AD8800984708B9064B236070BD48F21050FBE79E
:10AD980048F21150F8E748F20350F5E7C87303008A
:10ADA8007052464D2DE9F0410D460D4904461746AF
:10ADB800FFF781FF90B966683946B2792846FFF7F0
:10ADC80085FF58B93279074B53F8223023B1294609
:10ADD8002046BDE8F041184748F20350BDE8F0812D
:10ADE8007052464DD4730300F0B528B14079D1B103
:10ADF8008AB948F2135015E01846F8E7441E0025B2
:10AE08004E5D0F5D575516550135013CA542F7D9E2
:10AE18001B1A014402448342F0D2002B48F211501D
:10AE280008BF0020F0BD48F21050FBE72DE9F843B9
:10AE38000C4600AF81461E49204615461E46FFF7C0
:10AE48003AFF58BB1B492846FFF735FF30BBD4F8FB
:10AE580004806B68984524D198F80520396A3046F3
:10AE6800FFF734FFD0B998F80430134A52F823801A
:10AE7800B8F1000F18D0B9F1000F0AD10F4A32F813
:10AE8800133033B10E336A46DB08A2EBC3039D4689
:10AE9800E94633462A4621464846C047BD46BDE8EE
:10AEA800F88348F24150F9E748F20350F6E700BF4B
:10AEB8007652464D7052464DE0730300E873030026
:10AEC800F8B50A4F0A4C0B4DE41B0121E408297020
:10AED8000026A64203D102232B700020F8BD57F8A4
:10AEE800363098470028F9D10136F2E7BC4803000C
:10AEF800C44803003C360020054B1A78022A04D0C7
:10AF08001878431E5842584170470120704700BFC7
:10AF18003C36002030B50023934201D1012006E0E1
:10AF2800C55CCC5CA54203D08CBF0120002030BD9D
:10AF38000133F1E72DE9F74F1E469DF830300193B4
:10AF4800174605468846002296424FEAC20449D170
:10AF5800FF2304F108025B0033F0FF0102D1013442
:10AF6800A242F8D1002D42D0002E43D0B8F1000FF4
:10AF780043D0002F41D0324641463846FFF7CAFF3A
:10AF880000283DD04FEAD409FF2304F007042341E9
:10AF98005BB205EB090A00931B48019B0068324627
:10AFA8002946FBF7FDFC8346C0B901464A462846B8
:10AFB80006F004FB2CB19AF80020009B1A408AF88E
:10AFC8000020324641462846FFF7A4FF0028E3D078
:10AFD80029463846FFF79EFF0028DDD0584603B0C3
:10AFE800BDE8F08FBB5C002BB3D10132ACE748F26F
:10AFF800135BF3E748F2145BF0E748F2105BEDE708
:10B0080048F2175BEAE700BF8C37002013B501242C
:10B018000094FFF78FFF02B010BD000070B51B4B06
:10B028006A469A4206460D460CD2194B19481A49E7
:10B03800C01AC008000440F00100FFF77BF848F28E
:10B04800195070BDFFF758FFB8B1144C236823B1ED
:10B05800134B1A68134B9A4212D09EB995B91248ED
:10B0680012492060FBF778FC0028EAD10C4B0D4A06
:10B078001A6023680E4A1A60E3E74FF40540E0E7D8
:10B088000020DEE748F21750DBE700BF00E00020B1
:10B09800C4480300FC480300EC7303008C3700200D
:10B0A800843700206572E54B403600208837002041
:10B0B8006169614D094B0A4A196891420AD1094AE6
:10B0C8001068094A0168914204D1002202601A609E
:10B0D800FBF75EBC48F20250704700BF843700207F
:10B0E8006572E54B8C3700206169614D10B51346D8
:10B0F800144A6C4694420CD2134B14481449C01A93
:10B10800C008000440F00100FFF714F848F2195095
:10B1180010BD03B169B10F4A14680F4A94420BD1AC
:10B1280068B90E480A4600680D49BDE81040FBF7AB
:10B138003FBC48F21050EBE748F20250E8E748F20B
:10B148001750E5E700E00020C4480300FC4803006E
:10B15800EC730300843700206572E54B8C370020C0
:10B16800883700202DE9F0410D4617460446F0B116
:10B1780009B3144B1A68144B9A421FD1134E3B461D
:10B188000A4601463068FBF70BFC48F271539842B7
:10B198000FD1002211461046FFF7A8FF48B93B46D9
:10B1A8002A4621463068BDE8F041FBF7F9BB48F272
:10B1B8001350BDE8F08148F21450FAE748F2025003
:10B1C800F7E700BF843700206572E54B8C37002015
:10B1D8000122FFF7C7BF000007B500F0D9FA0DF14B
:10B1E800070000F08BFCFDF72BFC08B1FBF72AFDEC
:10B1F80000F0FAFB00F0EEFA00F01AFB00F028FB72
:10B2080000F048FC00F086FB00F0C2FB00F006FCF2
:10B2180000F0B2F800F088F800F0C8F800F09EFBE3
:10B228009DF807000B4C0C4E0C4D00F0A2FA00F0F4
:10B238008BF903F031F808B1FBF704FD2378002BF4
:10B24800F7D0304600F048F9284600F05DF90023B1
:10B258002370EEE7EA370020903700209C37002063
:10B268000178012910B420D004D302293FD05DF819
:10B27800044B7047224B1B78002BF8D0214B2248F7
:10B288001A780132D2B2052A88BF00221A701B78B8
:10B298001E4A5DF8044BC3EBC30313441C4A1360F6
:10B2A8001C4B0B221968FEF711BB15480378002BBD
:10B2B800DDD0194B1A780132D2B2042A89BF002294
:10B2C8001A701A70154C1B7884BF2170027003EB3A
:10B2D800830203EB4203124A0B485DF8044B134404
:10B2E8000C4A13600A4B07221968FEF79FBA0D4BE8
:10B2F80001221A70084A00231370024A1370B6E735
:10B30800EB370020FC37002058740300AC2B0020DA
:10B31800F8370020F0370020F4370020EA37002003
:10B32800A8370020EC3700201FB50F4A92E8030029
:10B3380002AB83E803000D4A0D481946FEF75AFB95
:10B3480008B1FBF77FFC0A480A490368D3F81025BF
:10B358000123D2B221FA02F200930021FEF7D9FBB1
:10B3680005B05DF804FB00BF08740300D1B4020007
:10B37800A42B002000D4300030B5094D0FCD89B082
:10B388006C460FC495E80F0084E80F00054A06488C
:10B398006946FEF789F908B1FBF754FC09B030BDDE
:10B3A8001074030069B2020058740300F0B52D4B05
:10B3B8002D4C186899889A7987B003AE019053F894
:10B3C800070FADF8081059688DF80A2003AA03C2C0
:10B3D80019899B7A118093702046FEF76BFA002832
:10B3E800FAD1072201A92048FEF720FA08B1FBF795
:10B3F80029FC1E4C1C4F44F001044FF47A40A0472E
:10B408004FF47A40A0474FF47A40A0470125002224
:10B418008DF810501346B15C01320B44092A9BB2D7
:10B42800F9D11A0A8DF815208DF816303846FEF72E
:10B4380041FA0028FAD10B2231463846FEF7F6F9D0
:10B4480008B1FBF7FFFB4FF47A40A04701354FF4F2
:10B458007A40A047EDB24FF47A40A047082DD6D1E4
:10B4680007B0F0BD30740300587403005074030033
:10B4780038B50D4B0D4C0E490E4D01221A700E4A6F
:10B48800002313700D4A13700D4A22600D4A116093
:10B498002846FEF70FFA0028FAD121680548072246
:10B4A800BDE83840FEF7C2B9EB370020F837002076
:10B4B800A837002058740300F4370020FC37002018
:10B4C800AC2B0020F0370020024B01221A70FFF746
:10B4D800CFBF00BFEB3700200A4B197ADA790A434D
:10B4E800028099795A790A434280D97C9A7C0A4326
:10B4F8008280197FDA7E0A43597F9B7F0A43134370
:10B5080083607047A837002010B50E4B1A7A93F85D
:10B5180028101143018093F826109C79214341801B
:10B5280093F833100A43828093F83D1093F83C2037
:10B538000A4393F83E1093F83F300A43134383605D
:10B5480010BD00BFA83700200148FEF7BBBA00BFF6
:10B55800A42B002033DF704776DF704778DF704711
:10B568007ADF70477CDF70478FDF7047FBF76ABB75
:10B5780008B50E490E48FDF7B0FB0E4A136881B2B4
:10B5880001330D48136005F016FC30F008020BD0AB
:10B5980020F00202112A07D043F20142904203D060
:10B5A800BDE80840FBF74EBB08BD00BFBC3A002011
:10B5B800CC3A002000380020F43A002008B50D49A4
:10B5C8000D48FDF78AFB4FF6FE72C1B20B4805F035
:10B5D8009CF930F008020BD020F00202112A07D0A3
:10B5E80043F20142904203D0BDE80840FBF72ABB72
:10B5F80008BD00BF703A0020803A00205C3A002065
:10B60800014805F006BC00BFF43A00200388212B4E
:10B6180013B5044625D005D8102B0CD0112B1BD000
:10B6280002B010BD3B2B01D0562BF9D11321A088B5
:10B63800FFF792FF0BE00720FBF74CF808B1FBF788
:10B6480001FB0C4BA1880C48198002F037FF002839
:10B65800E6D0FBF7F7FAE3E7064B4FF6FF721A80DE
:10B66800DEE702A9002321F8043D8088FFF77CFF6C
:10B67800EDE700BFEA2B0020443B002008B500207E
:10B68800FBF728F808B1FBF7DDFAFBF717F908B163
:10B69800FBF7D8FAFFF75EFF18B1BDE80840FBF7E3
:10B6A800D1BA08BD08B503784BB9054B3B211888BA
:10B6B800FFF752FF18B1BDE80840FBF7C3BA08BD51
:10B6C800EA2B0020072808B513D00A280DD0042833
:10B6D80019D10D4B13211888FFF73EFF30F00803EE
:10B6E80011D0BDE80840FBF7ADBABDE80840FFF748
:10B6F800C5BF054B1A884FF6FF739A4203D103481A
:10B7080001F035F9EAE708BDEA2B002004380020EB
:10B7180008B548B103280BD10220FAF7DBFF38B18E
:10B72800BDE80840FBF78EBABDE80840FFF7A6BFA2
:10B7380008BD000008B50321044800F0D4FF18B183
:10B74800BDE80840FBF77EBA08BD00BF04380020FA
:10B7580010B5044604F0B6F9204603F0D9FF237863
:10B768000C2B03D1BDE81040FFF7E4BF10BDFBF779
:10B7780069BA08B530B103F065FD38B1BDE80840D5
:10B78800FBF760BABDE80840FFF7D4BF08BD00006A
:10B7980008B5FBF7A9FC08B1FBF754FA094A0A48AF
:10B7A8000121FBF7D1FC08B1FBF74CFA074A08481E
:10B7B8000121FBF7C9FC18B1BDE80840FBF742BA04
:10B7C80008BD00BFC5B502006C74030079B502005E
:10B7D800707403001FB504AC1123134804F80C3D22
:10B7E80005F01FFF104982B22046FFF7BBFE08B1E3
:10B7F800FBF728FA40F24130FFF7B0FE08B1FBF73B
:10B8080021FA08220DEB0200002105F0D7FE074AB5
:10B818004FF0C87302A8CDE90223FFF7A1FE08B1D3
:10B82800FBF710FA04B010BD607403004001080271
:10B8380008B50549054802F095FB18B1BDE8084070
:10B84800FBF700BA08BD00BF09B60200A83A0020FD
:10B8580000B59BB01AA92A4B41F8643D294802F06B
:10B868001BFE08B1FBF7EEF903231022002102A802
:10B878008DF8033005F0A2FE002302930DF10302B8
:10B88800012302A920488DF80C3004928DF8143059
:10B898008DF8153005F01EFA08B1FBF7D3F9102220
:10B8A800002106A805F08AFE0022012306920892CC
:10B8B80006A9642215488DF81C308DF824208DF8CF
:10B8C80025308DF826308DF8273004F0ADFF08B10B
:10B8D800FBF7B8F9402200210AA805F06FFE0AA874
:10B8E8000B4901F008FB01230AA88DF8643005F024
:10B8F800A3F808B1FBF7A6F91BB05DF804FB00BF7D
:10B9080075B50200443B0020F43A00205C3A002060
:10B91800747403000D490E4808B551226423C1E927
:10B92800002301238B600B73FDF7B0F909498C20C4
:10B938004FF49673C1E900030A238B6000230B734D
:10B948000548BDE80840FDF7A1B900BF703A0020DE
:10B95800803A0020BC3A0020CC3A002008B50022EA
:10B968004FF480310848FBF701FC08B1FBF76AF98E
:10B9780000224FF400410548FBF7F8FB18B1BDE879
:10B988000840FBF75FB908BD883A0020D43A002088
:10B9980000B589B01C22002101A805F00FFE002384
:10B9A8004FF42032CDE901324FF470220392032282
:10B9B8008DF81020094A8DF81430094B92890693A6
:10B9C80001A8084BADF81220079301F0F1F808B16F
:10B9D800FBF738F909B05DF804FB00BFF43A002022
:10B9E800ADB6020077B7020013B505F07FFA08B1CB
:10B9F800FBF728F902AC002344F8043D0120214656
:10BA080005F040FB08B1FBF71DF9204605F00CFCDA
:10BA180008B1FBF717F902B010BD000007B503F035
:10BA28001FFB08B1FBF70EF905220021684605F057
:10BA3800C5FD9DF8003003F0F80343F00503032229
:10BA480003F0F70362F306136FF3C7138DF80030A2
:10BA580007238DF8013010238DF802309DF803304C
:10BA680013438DF803309DF80430684613438DF86E
:10BA7800043003F08FFB08B1FBF7E4F8044803F047
:10BA880071FB08B1FBF7DEF803B05DF804FB00BFFB
:10BA980059B7020000B5ADB0AC22002101A805F0ED
:10BAA8008DFD062202238DF8072005228DF804302B
:10BAB800ADF8142001230E4A8DF8063006928DF851
:10BAC80080304FF4967244F25063CDE9232301A9E4
